{
  "abi": [
    {
      "inputs": [
        {
          "internalType": "string",
          "name": "splashSVGImageUri",
          "type": "string"
        },
        {
          "internalType": "string",
          "name": "splash2SVGImageUri",
          "type": "string"
        }
      ],
      "stateMutability": "nonpayable",
      "type": "constructor"
    },
    {
      "inputs": [
        {
          "internalType": "address",
          "name": "sender",
          "type": "address"
        },
        {
          "internalType": "uint256",
          "name": "tokenId",
          "type": "uint256"
        },
        {
          "internalType": "address",
          "name": "owner",
          "type": "address"
        }
      ],
      "name": "ERC721IncorrectOwner",
      "type": "error"
    },
    {
      "inputs": [
        {
          "internalType": "address",
          "name": "operator",
          "type": "address"
        },
        {
          "internalType": "uint256",
          "name": "tokenId",
          "type": "uint256"
        }
      ],
      "name": "ERC721InsufficientApproval",
      "type": "error"
    },
    {
      "inputs": [
        {
          "internalType": "address",
          "name": "approver",
          "type": "address"
        }
      ],
      "name": "ERC721InvalidApprover",
      "type": "error"
    },
    {
      "inputs": [
        {
          "internalType": "address",
          "name": "operator",
          "type": "address"
        }
      ],
      "name": "ERC721InvalidOperator",
      "type": "error"
    },
    {
      "inputs": [
        {
          "internalType": "address",
          "name": "owner",
          "type": "address"
        }
      ],
      "name": "ERC721InvalidOwner",
      "type": "error"
    },
    {
      "inputs": [
        {
          "internalType": "address",
          "name": "receiver",
          "type": "address"
        }
      ],
      "name": "ERC721InvalidReceiver",
      "type": "error"
    },
    {
      "inputs": [
        {
          "internalType": "address",
          "name": "sender",
          "type": "address"
        }
      ],
      "name": "ERC721InvalidSender",
      "type": "error"
    },
    {
      "inputs": [
        {
          "internalType": "uint256",
          "name": "tokenId",
          "type": "uint256"
        }
      ],
      "name": "ERC721NonexistentToken",
      "type": "error"
    },
    {
      "inputs": [],
      "name": "NFT__CantFlipIfNotOwner",
      "type": "error"
    },
    {
      "anonymous": false,
      "inputs": [
        {
          "indexed": true,
          "internalType": "address",
          "name": "owner",
          "type": "address"
        },
        {
          "indexed": true,
          "internalType": "address",
          "name": "approved",
          "type": "address"
        },
        {
          "indexed": true,
          "internalType": "uint256",
          "name": "tokenId",
          "type": "uint256"
        }
      ],
      "name": "Approval",
      "type": "event"
    },
    {
      "anonymous": false,
      "inputs": [
        {
          "indexed": true,
          "internalType": "address",
          "name": "owner",
          "type": "address"
        },
        {
          "indexed": true,
          "internalType": "address",
          "name": "operator",
          "type": "address"
        },
        {
          "indexed": false,
          "internalType": "bool",
          "name": "approved",
          "type": "bool"
        }
      ],
      "name": "ApprovalForAll",
      "type": "event"
    },
    {
      "anonymous": false,
      "inputs": [
        {
          "indexed": true,
          "internalType": "address",
          "name": "from",
          "type": "address"
        },
        {
          "indexed": true,
          "internalType": "address",
          "name": "to",
          "type": "address"
        },
        {
          "indexed": true,
          "internalType": "uint256",
          "name": "tokenId",
          "type": "uint256"
        }
      ],
      "name": "Transfer",
      "type": "event"
    },
    {
      "inputs": [
        {
          "internalType": "address",
          "name": "to",
          "type": "address"
        },
        {
          "internalType": "uint256",
          "name": "tokenId",
          "type": "uint256"
        }
      ],
      "name": "approve",
      "outputs": [],
      "stateMutability": "nonpayable",
      "type": "function"
    },
    {
      "inputs": [
        {
          "internalType": "address",
          "name": "owner",
          "type": "address"
        }
      ],
      "name": "balanceOf",
      "outputs": [
        {
          "internalType": "uint256",
          "name": "",
          "type": "uint256"
        }
      ],
      "stateMutability": "view",
      "type": "function"
    },
    {
      "inputs": [
        {
          "internalType": "uint256",
          "name": "tokenId",
          "type": "uint256"
        }
      ],
      "name": "flipNFT",
      "outputs": [],
      "stateMutability": "nonpayable",
      "type": "function"
    },
    {
      "inputs": [
        {
          "internalType": "uint256",
          "name": "tokenId",
          "type": "uint256"
        }
      ],
      "name": "getApproved",
      "outputs": [
        {
          "internalType": "address",
          "name": "",
          "type": "address"
        }
      ],
      "stateMutability": "view",
      "type": "function"
    },
    {
      "inputs": [
        {
          "internalType": "address",
          "name": "owner",
          "type": "address"
        },
        {
          "internalType": "address",
          "name": "operator",
          "type": "address"
        }
      ],
      "name": "isApprovedForAll",
      "outputs": [
        {
          "internalType": "bool",
          "name": "",
          "type": "bool"
        }
      ],
      "stateMutability": "view",
      "type": "function"
    },
    {
      "inputs": [],
      "name": "mintNFT",
      "outputs": [],
      "stateMutability": "nonpayable",
      "type": "function"
    },
    {
      "inputs": [],
      "name": "name",
      "outputs": [
        {
          "internalType": "string",
          "name": "",
          "type": "string"
        }
      ],
      "stateMutability": "view",
      "type": "function"
    },
    {
      "inputs": [
        {
          "internalType": "uint256",
          "name": "tokenId",
          "type": "uint256"
        }
      ],
      "name": "ownerOf",
      "outputs": [
        {
          "internalType": "address",
          "name": "",
          "type": "address"
        }
      ],
      "stateMutability": "view",
      "type": "function"
    },
    {
      "inputs": [
        {
          "internalType": "address",
          "name": "from",
          "type": "address"
        },
        {
          "internalType": "address",
          "name": "to",
          "type": "address"
        },
        {
          "internalType": "uint256",
          "name": "tokenId",
          "type": "uint256"
        }
      ],
      "name": "safeTransferFrom",
      "outputs": [],
      "stateMutability": "nonpayable",
      "type": "function"
    },
    {
      "inputs": [
        {
          "internalType": "address",
          "name": "from",
          "type": "address"
        },
        {
          "internalType": "address",
          "name": "to",
          "type": "address"
        },
        {
          "internalType": "uint256",
          "name": "tokenId",
          "type": "uint256"
        },
        {
          "internalType": "bytes",
          "name": "data",
          "type": "bytes"
        }
      ],
      "name": "safeTransferFrom",
      "outputs": [],
      "stateMutability": "nonpayable",
      "type": "function"
    },
    {
      "inputs": [
        {
          "internalType": "address",
          "name": "operator",
          "type": "address"
        },
        {
          "internalType": "bool",
          "name": "approved",
          "type": "bool"
        }
      ],
      "name": "setApprovalForAll",
      "outputs": [],
      "stateMutability": "nonpayable",
      "type": "function"
    },
    {
      "inputs": [
        {
          "internalType": "bytes4",
          "name": "interfaceId",
          "type": "bytes4"
        }
      ],
      "name": "supportsInterface",
      "outputs": [
        {
          "internalType": "bool",
          "name": "",
          "type": "bool"
        }
      ],
      "stateMutability": "view",
      "type": "function"
    },
    {
      "inputs": [],
      "name": "symbol",
      "outputs": [
        {
          "internalType": "string",
          "name": "",
          "type": "string"
        }
      ],
      "stateMutability": "view",
      "type": "function"
    },
    {
      "inputs": [
        {
          "internalType": "uint256",
          "name": "tokenId",
          "type": "uint256"
        }
      ],
      "name": "tokenURI",
      "outputs": [
        {
          "internalType": "string",
          "name": "",
          "type": "string"
        }
      ],
      "stateMutability": "view",
      "type": "function"
    },
    {
      "inputs": [
        {
          "internalType": "address",
          "name": "from",
          "type": "address"
        },
        {
          "internalType": "address",
          "name": "to",
          "type": "address"
        },
        {
          "internalType": "uint256",
          "name": "tokenId",
          "type": "uint256"
        }
      ],
      "name": "transferFrom",
      "outputs": [],
      "stateMutability": "nonpayable",
      "type": "function"
    }
  ],
  "bytecode": {
    "object": "0x60806040523480156200001157600080fd5b50604051620016ed380380620016ed83398101604081905262000034916200018c565b6040518060400160405280600b81526020016a11d85b59535bdbd913999d60aa1b815250604051806040016040528060068152602001654a537469636b60d01b815250816000908162000088919062000285565b50600162000097828262000285565b5060079150620000aa9050838262000285565b506008620000b9828262000285565b505060006006555062000351565b634e487b7160e01b600052604160045260246000fd5b600082601f830112620000ef57600080fd5b81516001600160401b03808211156200010c576200010c620000c7565b604051601f8301601f19908116603f01168101908282118183101715620001375762000137620000c7565b816040528381526020925086838588010111156200015457600080fd5b600091505b8382101562000178578582018301518183018401529082019062000159565b600093810190920192909252949350505050565b60008060408385031215620001a057600080fd5b82516001600160401b0380821115620001b857600080fd5b620001c686838701620000dd565b93506020850151915080821115620001dd57600080fd5b50620001ec85828601620000dd565b9150509250929050565b600181811c908216806200020b57607f821691505b6020821081036200022c57634e487b7160e01b600052602260045260246000fd5b50919050565b601f8211156200028057600081815260208120601f850160051c810160208610156200025b5750805b601f850160051c820191505b818110156200027c5782815560010162000267565b5050505b505050565b81516001600160401b03811115620002a157620002a1620000c7565b620002b981620002b28454620001f6565b8462000232565b602080601f831160018114620002f15760008415620002d85750858301515b600019600386901b1c1916600185901b1785556200027c565b600085815260208120601f198616915b82811015620003225788860151825594840194600190910190840162000301565b5085821015620003415787850151600019600388901b60f8161c191681555b5050505050600190811b01905550565b61138c80620003616000396000f3fe608060405234801561001057600080fd5b50600436106100f55760003560e01c80636352211e11610097578063ae6bd52e11610066578063ae6bd52e146101f4578063b88d4fde14610207578063c87b56dd1461021a578063e985e9c51461022d57600080fd5b80636352211e146101a557806370a08231146101b857806395d89b41146101d9578063a22cb465146101e157600080fd5b8063095ea7b3116100d3578063095ea7b31461016257806314f710fe1461017757806323b872dd1461017f57806342842e0e1461019257600080fd5b806301ffc9a7146100fa57806306fdde0314610122578063081812fc14610137575b600080fd5b61010d610108366004610ee4565b610240565b60405190151581526020015b60405180910390f35b61012a610292565b6040516101199190610f58565b61014a610145366004610f6b565b610324565b6040516001600160a01b039091168152602001610119565b610175610170366004610fa0565b61034d565b005b61017561035c565b61017561018d366004610fca565b610396565b6101756101a0366004610fca565b610426565b61014a6101b3366004610f6b565b610446565b6101cb6101c6366004611006565b610451565b604051908152602001610119565b61012a610499565b6101756101ef366004611021565b6104a8565b610175610202366004610f6b565b6104b3565b610175610215366004611073565b610539565b61012a610228366004610f6b565b610550565b61010d61023b36600461114f565b61074a565b60006001600160e01b031982166380ac58cd60e01b148061027157506001600160e01b03198216635b5e139f60e01b145b8061028c57506301ffc9a760e01b6001600160e01b03198316145b92915050565b6060600080546102a190611182565b80601f01602080910402602001604051908101604052809291908181526020018280546102cd90611182565b801561031a5780601f106102ef5761010080835404028352916020019161031a565b820191906000526020600020905b8154815290600101906020018083116102fd57829003601f168201915b5050505050905090565b600061032f82610778565b506000828152600460205260409020546001600160a01b031661028c565b6103588282336107b1565b5050565b610368336006546107be565b600680546000908152600960205260408120805460ff191690558154919061038f836111e8565b9190505550565b6001600160a01b0382166103c557604051633250574960e11b8152600060048201526024015b60405180910390fd5b60006103d28383336107d8565b9050836001600160a01b0316816001600160a01b031614610420576040516364283d7b60e01b81526001600160a01b03808616600483015260248201849052821660448201526064016103bc565b50505050565b61044183838360405180602001604052806000815250610539565b505050565b600061028c82610778565b60006001600160a01b03821661047d576040516322718ad960e21b8152600060048201526024016103bc565b506001600160a01b031660009081526003602052604090205490565b6060600180546102a190611182565b6103583383836108d1565b6104bd3382610970565b6104da576040516371d5dae760e01b815260040160405180910390fd5b600160008281526009602052604090205460ff1660018111156104ff576104ff6111bc565b0361051c576000908152600960205260409020805460ff19169055565b6000818152600960205260409020805460ff191660011790555b50565b610544848484610396565b61042084848484610a06565b6060806000808481526009602052604090205460ff166001811115610577576105776111bc565b0361060e576007805461058990611182565b80601f01602080910402602001604051908101604052809291908181526020018280546105b590611182565b80156106025780601f106105d757610100808354040283529160200191610602565b820191906000526020600020905b8154815290600101906020018083116105e557829003601f168201915b505050505090506106c6565b600160008481526009602052604090205460ff166001811115610633576106336111bc565b036106c6576008805461064590611182565b80601f016020809104026020016040519081016040528092919081815260200182805461067190611182565b80156106be5780601f10610693576101008083540402835291602001916106be565b820191906000526020600020905b8154815290600101906020018083116106a157829003601f168201915b505050505090505b60408051808201909152601d81527f646174613a6170706c69636174696f6e2f6a736f6e3b6261736536342c00000060208201526107228260405160200161070e9190611201565b604051602081830303815290604052610b2f565b604051602001610733929190611241565b604051602081830303815290604052915050919050565b6001600160a01b03918216600090815260056020908152604080832093909416825291909152205460ff1690565b6000818152600260205260408120546001600160a01b03168061028c57604051637e27328960e01b8152600481018490526024016103bc565b6104418383836001610c82565b610358828260405180602001604052806000815250610d88565b6000828152600260205260408120546001600160a01b039081169083161561080557610805818486610d9f565b6001600160a01b0381161561084357610822600085600080610c82565b6001600160a01b038116600090815260036020526040902080546000190190555b6001600160a01b03851615610872576001600160a01b0385166000908152600360205260409020805460010190555b60008481526002602052604080822080546001600160a01b0319166001600160a01b0389811691821790925591518793918516917fddf252ad1be2c89b69c2b068fc378daa952ba7f163c4a11628f55a4df523b3ef91a4949350505050565b6001600160a01b03821661090357604051630b61174360e31b81526001600160a01b03831660048201526024016103bc565b6001600160a01b03838116600081815260056020908152604080832094871680845294825291829020805460ff191686151590811790915591519182527f17307eab39ab6107e8899845ad3d59bd9653f200f220920489ca2b5937696c31910160405180910390a3505050565b6000818152600260205260408120546001600160a01b03848116911614806109b15750826001600160a01b03166109a683610324565b6001600160a01b0316145b6109fd5760405162461bcd60e51b815260206004820181905260248201527f43616c6c6572206973206e6f74206f776e6572206e6f7220617070726f76656460448201526064016103bc565b50600192915050565b6001600160a01b0383163b1561042057604051630a85bd0160e11b81526001600160a01b0384169063150b7a0290610a48903390889087908790600401611270565b6020604051808303816000875af1925050508015610a83575060408051601f3d908101601f19168201909252610a80918101906112ad565b60015b610aec573d808015610ab1576040519150601f19603f3d011682016040523d82523d6000602084013e610ab6565b606091505b508051600003610ae457604051633250574960e11b81526001600160a01b03851660048201526024016103bc565b805181602001fd5b6001600160e01b03198116630a85bd0160e11b14610b2857604051633250574960e11b81526001600160a01b03851660048201526024016103bc565b5050505050565b60608151600003610b4e57505060408051602081019091526000815290565b60006040518060600160405280604081526020016113176040913990506000600384516002610b7d91906112ca565b610b8791906112dd565b610b929060046112ff565b67ffffffffffffffff811115610baa57610baa61105d565b6040519080825280601f01601f191660200182016040528015610bd4576020820181803683370190505b509050600182016020820185865187015b80821015610c40576003820191508151603f8160121c168501518453600184019350603f81600c1c168501518453600184019350603f8160061c168501518453600184019350603f8116850151845350600183019250610be5565b5050600386510660018114610c5c5760028114610c6f57610c77565b603d6001830353603d6002830353610c77565b603d60018303535b509195945050505050565b8080610c9657506001600160a01b03821615155b15610d58576000610ca684610778565b90506001600160a01b03831615801590610cd25750826001600160a01b0316816001600160a01b031614155b8015610ce55750610ce3818461074a565b155b15610d0e5760405163a9fbf51f60e01b81526001600160a01b03841660048201526024016103bc565b8115610d565783856001600160a01b0316826001600160a01b03167f8c5be1e5ebec7d5bd14f71427d1e84f3dd0314c0f7b2291e5b200ac8c7c3b92560405160405180910390a45b505b5050600090815260046020526040902080546001600160a01b0319166001600160a01b0392909216919091179055565b610d928383610e03565b6104416000848484610a06565b610daa838383610e68565b610441576001600160a01b038316610dd857604051637e27328960e01b8152600481018290526024016103bc565b60405163177e802f60e01b81526001600160a01b0383166004820152602481018290526044016103bc565b6001600160a01b038216610e2d57604051633250574960e11b8152600060048201526024016103bc565b6000610e3b838360006107d8565b90506001600160a01b03811615610441576040516339e3563760e11b8152600060048201526024016103bc565b60006001600160a01b03831615801590610ec65750826001600160a01b0316846001600160a01b03161480610ea25750610ea2848461074a565b80610ec657506000828152600460205260409020546001600160a01b038481169116145b949350505050565b6001600160e01b03198116811461053657600080fd5b600060208284031215610ef657600080fd5b8135610f0181610ece565b9392505050565b60005b83811015610f23578181015183820152602001610f0b565b50506000910152565b60008151808452610f44816020860160208601610f08565b601f01601f19169290920160200192915050565b602081526000610f016020830184610f2c565b600060208284031215610f7d57600080fd5b5035919050565b80356001600160a01b0381168114610f9b57600080fd5b919050565b60008060408385031215610fb357600080fd5b610fbc83610f84565b946020939093013593505050565b600080600060608486031215610fdf57600080fd5b610fe884610f84565b9250610ff660208501610f84565b9150604084013590509250925092565b60006020828403121561101857600080fd5b610f0182610f84565b6000806040838503121561103457600080fd5b61103d83610f84565b91506020830135801515811461105257600080fd5b809150509250929050565b634e487b7160e01b600052604160045260246000fd5b6000806000806080858703121561108957600080fd5b61109285610f84565b93506110a060208601610f84565b925060408501359150606085013567ffffffffffffffff808211156110c457600080fd5b818701915087601f8301126110d857600080fd5b8135818111156110ea576110ea61105d565b604051601f8201601f19908116603f011681019083821181831017156111125761111261105d565b816040528281528a602084870101111561112b57600080fd5b82602086016020830137600060208483010152809550505050505092959194509250565b6000806040838503121561116257600080fd5b61116b83610f84565b915061117960208401610f84565b90509250929050565b600181811c9082168061119657607f821691505b6020821081036111b657634e487b7160e01b600052602260045260246000fd5b50919050565b634e487b7160e01b600052602160045260246000fd5b634e487b7160e01b600052601160045260246000fd5b6000600182016111fa576111fa6111d2565b5060010190565b6a3d9134b6b0b3b2911d101160a91b8152815160009061122881600b850160208701610f08565b61227d60f01b600b939091019283015250600d01919050565b60008351611253818460208801610f08565b835190830190611267818360208801610f08565b01949350505050565b6001600160a01b03858116825284166020820152604081018390526080606082018190526000906112a390830184610f2c565b9695505050505050565b6000602082840312156112bf57600080fd5b8151610f0181610ece565b8082018082111561028c5761028c6111d2565b6000826112fa57634e487b7160e01b600052601260045260246000fd5b500490565b808202811582820484141761028c5761028c6111d256fe4142434445464748494a4b4c4d4e4f505152535455565758595a6162636465666768696a6b6c6d6e6f707172737475767778797a303132333435363738392b2fa2646970667358221220db7f04824d0dbb56da99540f45c5fcf4938606faa6d539ab4825d18891be9bc964736f6c63430008150033",
    "linkReferences": {}
  },
  "methodIdentifiers": {
    "approve(address,uint256)": "095ea7b3",
    "balanceOf(address)": "70a08231",
    "flipNFT(uint256)": "ae6bd52e",
    "getApproved(uint256)": "081812fc",
    "isApprovedForAll(address,address)": "e985e9c5",
    "mintNFT()": "14f710fe",
    "name()": "06fdde03",
    "ownerOf(uint256)": "6352211e",
    "safeTransferFrom(address,address,uint256)": "42842e0e",
    "safeTransferFrom(address,address,uint256,bytes)": "b88d4fde",
    "setApprovalForAll(address,bool)": "a22cb465",
    "supportsInterface(bytes4)": "01ffc9a7",
    "symbol()": "95d89b41",
    "tokenURI(uint256)": "c87b56dd",
    "transferFrom(address,address,uint256)": "23b872dd"
  },
  "id": 33
}